use std::sync::OnceLock;

use k256::SecretKey;
use revm_primitives::{keccak256, Bytes, B256, U256};

use crate::{
    access_list::AccessListItem,
    signature::{Signature, SignatureError},
    transaction::{kind::TransactionKind, signed::Eip1559SignedTransaction},
    utils::envelop_bytes,
};

#[derive(Debug, Clone, PartialEq, Eq)]
#[cfg_attr(
    feature = "fastrlp",
    derive(open_fastrlp::RlpEncodable, open_fastrlp::RlpDecodable)
)]
pub struct EIP1559TransactionRequest {
    pub chain_id: u64,
    pub nonce: u64,
    pub max_priority_fee_per_gas: U256,
    pub max_fee_per_gas: U256,
    pub gas_limit: u64,
    pub kind: TransactionKind,
    pub value: U256,
    pub input: Bytes,
    pub access_list: Vec<AccessListItem>,
}

impl EIP1559TransactionRequest {
    /// Computes the hash of the transaction.
    pub fn hash(&self) -> B256 {
        let encoded = rlp::encode(self);

        keccak256(&envelop_bytes(2, &encoded))
    }

    pub fn sign(self, secret_key: &SecretKey) -> Result<Eip1559SignedTransaction, SignatureError> {
        let hash = self.hash();

        let signature = Signature::new(hash, secret_key)?;

        Ok(Eip1559SignedTransaction {
            chain_id: self.chain_id,
            nonce: self.nonce,
            max_priority_fee_per_gas: self.max_priority_fee_per_gas,
            max_fee_per_gas: self.max_fee_per_gas,
            gas_limit: self.gas_limit,
            kind: self.kind,
            value: self.value,
            input: self.input,
            access_list: self.access_list.into(),
            odd_y_parity: signature.odd_y_parity(),
            r: signature.r,
            s: signature.s,
            hash: OnceLock::new(),
        })
    }
}

impl From<&Eip1559SignedTransaction> for EIP1559TransactionRequest {
    fn from(t: &Eip1559SignedTransaction) -> Self {
        Self {
            chain_id: t.chain_id,
            nonce: t.nonce,
            max_priority_fee_per_gas: t.max_priority_fee_per_gas,
            max_fee_per_gas: t.max_fee_per_gas,
            gas_limit: t.gas_limit,
            kind: t.kind,
            value: t.value,
            input: t.input.clone(),
            access_list: t.access_list.0.clone(),
        }
    }
}

impl rlp::Encodable for EIP1559TransactionRequest {
    fn rlp_append(&self, s: &mut rlp::RlpStream) {
        s.begin_list(9);
        s.append(&self.chain_id);
        s.append(&self.nonce);
        s.append(&self.max_priority_fee_per_gas);
        s.append(&self.max_fee_per_gas);
        s.append(&self.gas_limit);
        s.append(&self.kind);
        s.append(&self.value);
        s.append(&self.input.as_ref());
        s.append_list(&self.access_list);
    }
}

#[cfg(test)]
mod tests {
    use std::str::FromStr;

    use revm_primitives::Address;

    use super::*;

    fn dummy_request() -> EIP1559TransactionRequest {
        let to = Address::from_str("0xc014ba5ec014ba5ec014ba5ec014ba5ec014ba5e").unwrap();
        let input = hex::decode("1234").unwrap();
        EIP1559TransactionRequest {
            chain_id: 1,
            nonce: 1,
            max_priority_fee_per_gas: U256::from(2),
            max_fee_per_gas: U256::from(5),
            gas_limit: 3,
            kind: TransactionKind::Call(to),
            value: U256::from(4),
            input: Bytes::from(input),
            access_list: vec![AccessListItem {
                address: Address::zero(),
                storage_keys: vec![B256::zero(), B256::from(U256::from(1))],
            }],
        }
    }

    #[test]
    fn test_eip1559_transaction_request_encoding() {
        // Generated by Hardhat
        // QUESTION: What is considered a valid RLP-encoding? With the prepending type? or without?
        let expected =
            hex::decode("f87b010102050394c014ba5ec014ba5ec014ba5ec014ba5ec014ba5e04821234f85bf859940000000000000000000000000000000000000000f842a00000000000000000000000000000000000000000000000000000000000000000a00000000000000000000000000000000000000000000000000000000000000001")
                .unwrap();

        let request = dummy_request();

        let encoded = rlp::encode(&request);
        assert_eq!(expected, encoded.to_vec());
    }

    #[test]
    fn test_eip1559_transaction_request_encoding_empty() {
        // Generated by Hardhat
        let expected = hex::decode("c90180808080808080c0").unwrap();

        let empty = EIP1559TransactionRequest {
            chain_id: 1,
            nonce: 0,
            max_priority_fee_per_gas: U256::ZERO,
            max_fee_per_gas: U256::ZERO,
            gas_limit: 0,
            kind: TransactionKind::Create,
            value: U256::ZERO,
            input: Bytes::new(),
            access_list: vec![],
        };

        let encoded = rlp::encode(&empty);
        assert_eq!(expected, encoded.to_vec());
    }

    #[test]
    fn test_eip1559_transaction_request_hash() {
        // Generated by hardhat
        let expected = B256::from_slice(
            &hex::decode("1d21c520c93f0f8e07c2466361b22a8bb9906cdbf4670e53a701c075bbe69ecf")
                .unwrap(),
        );

        let request = dummy_request();
        assert_eq!(expected, request.hash());
    }
}
